{
  "_format": "hh-sol-artifact-1",
  "contractName": "L2Contract",
  "sourceName": "contracts/L2Contract.sol",
  "abi": [
    {
      "inputs": [
        {
          "internalType": "address",
          "name": "_l2Bridge",
          "type": "address"
        }
      ],
      "stateMutability": "nonpayable",
      "type": "constructor"
    },
    {
      "inputs": [
        {
          "internalType": "address",
          "name": "_to",
          "type": "address"
        },
        {
          "internalType": "bytes",
          "name": "_calldata",
          "type": "bytes"
        }
      ],
      "name": "sendMessageToL1",
      "outputs": [],
      "stateMutability": "payable",
      "type": "function"
    }
  ],
  "bytecode": "0x608060405234801561001057600080fd5b506040516105363803806105368339818101604052810190610032919061008d565b806000806101000a81548173ffffffffffffffffffffffffffffffffffffffff021916908373ffffffffffffffffffffffffffffffffffffffff160217905550506100ff565b600081519050610087816100e8565b92915050565b60006020828403121561009f57600080fd5b60006100ad84828501610078565b91505092915050565b60006100c1826100c8565b9050919050565b600073ffffffffffffffffffffffffffffffffffffffff82169050919050565b6100f1816100b6565b81146100fc57600080fd5b50565b6104288061010e6000396000f3fe60806040526004361061001e5760003560e01c8063abd9872914610023575b600080fd5b61003d60048036038101906100389190610162565b61003f565b005b60008060009054906101000a900473ffffffffffffffffffffffffffffffffffffffff169050600080600190508273ffffffffffffffffffffffffffffffffffffffff1663240ff37834848885896040518663ffffffff1660e01b81526004016100ac949392919061021c565b6000604051808303818588803b1580156100c557600080fd5b505af11580156100d9573d6000803e3d6000fd5b50505050505050505050565b60006100f86100f38461028d565b610268565b90508281526020810184848401111561011057600080fd5b61011b848285610328565b509392505050565b600081359050610132816103db565b92915050565b600082601f83011261014957600080fd5b81356101598482602086016100e5565b91505092915050565b6000806040838503121561017557600080fd5b600061018385828601610123565b925050602083013567ffffffffffffffff8111156101a057600080fd5b6101ac85828601610138565b9150509250929050565b6101bf816102da565b82525050565b6101ce816102ec565b82525050565b60006101df826102be565b6101e981856102c9565b93506101f9818560208601610337565b610202816103ca565b840191505092915050565b61021681610318565b82525050565b6000608082019050610231600083018761020d565b61023e60208301866101b6565b61024b60408301856101c5565b818103606083015261025d81846101d4565b905095945050505050565b6000610272610283565b905061027e828261036a565b919050565b6000604051905090565b600067ffffffffffffffff8211156102a8576102a761039b565b5b6102b1826103ca565b9050602081019050919050565b600081519050919050565b600082825260208201905092915050565b60006102e5826102f8565b9050919050565b60008115159050919050565b600073ffffffffffffffffffffffffffffffffffffffff82169050919050565b600063ffffffff82169050919050565b82818337600083830152505050565b60005b8381101561035557808201518184015260208101905061033a565b83811115610364576000848401525b50505050565b610373826103ca565b810181811067ffffffffffffffff821117156103925761039161039b565b5b80604052505050565b7f4e487b7100000000000000000000000000000000000000000000000000000000600052604160045260246000fd5b6000601f19601f8301169050919050565b6103e4816102da565b81146103ef57600080fd5b5056fea26469706673582212208a4c04de5a3bde65acf3005d4813582408e693cedbbb696f2497b3e48661247f64736f6c63430008040033",
  "linkReferences": {},
  "deployedLinkReferences": {}
}