{
  "_format": "hh-sol-artifact-1",
  "contractName": "L1Contract",
  "sourceName": "contracts/L1Contract.sol",
  "abi": [
    {
      "inputs": [
        {
          "internalType": "address",
          "name": "_l2Contract",
          "type": "address"
        },
        {
          "internalType": "address",
          "name": "_l1Bridge",
          "type": "address"
        }
      ],
      "stateMutability": "nonpayable",
      "type": "constructor"
    },
    {
      "inputs": [],
      "name": "greet",
      "outputs": [
        {
          "internalType": "string",
          "name": "",
          "type": "string"
        }
      ],
      "stateMutability": "view",
      "type": "function"
    },
    {
      "inputs": [
        {
          "internalType": "address",
          "name": "originAddress",
          "type": "address"
        },
        {
          "internalType": "uint32",
          "name": "originNetwork",
          "type": "uint32"
        },
        {
          "internalType": "bytes",
          "name": "data",
          "type": "bytes"
        }
      ],
      "name": "onMessageReceived",
      "outputs": [],
      "stateMutability": "payable",
      "type": "function"
    },
    {
      "inputs": [
        {
          "internalType": "string",
          "name": "_greeting",
          "type": "string"
        }
      ],
      "name": "setGreeting",
      "outputs": [],
      "stateMutability": "nonpayable",
      "type": "function"
    }
  ],
  "bytecode": "0x608060405234801561001057600080fd5b50604051610a5d380380610a5d833981810160405281019061003291906100d0565b81600160006101000a81548173ffffffffffffffffffffffffffffffffffffffff021916908373ffffffffffffffffffffffffffffffffffffffff16021790555080600260006101000a81548173ffffffffffffffffffffffffffffffffffffffff021916908373ffffffffffffffffffffffffffffffffffffffff1602179055505050610155565b6000815190506100ca8161013e565b92915050565b600080604083850312156100e357600080fd5b60006100f1858286016100bb565b9250506020610102858286016100bb565b9150509250929050565b60006101178261011e565b9050919050565b600073ffffffffffffffffffffffffffffffffffffffff82169050919050565b6101478161010c565b811461015257600080fd5b50565b6108f9806101646000396000f3fe6080604052600436106100345760003560e01c80631806b5f214610039578063a413686214610055578063cfae32171461007e575b600080fd5b610053600480360381019061004e91906104cf565b6100a9565b005b34801561006157600080fd5b5061007c60048036038101906100779190610536565b61020a565b005b34801561008a57600080fd5b506100936102a0565b6040516100a0919061061b565b60405180910390f35b600160009054906101000a900473ffffffffffffffffffffffffffffffffffffffff1673ffffffffffffffffffffffffffffffffffffffff168373ffffffffffffffffffffffffffffffffffffffff161461010357600080fd5b60018263ffffffff161461011657600080fd5b82600360006101000a81548173ffffffffffffffffffffffffffffffffffffffff021916908373ffffffffffffffffffffffffffffffffffffffff16021790555060003073ffffffffffffffffffffffffffffffffffffffff168260405161017e9190610604565b6000604051808303816000865af19150503d80600081146101bb576040519150601f19603f3d011682016040523d82523d6000602084013e6101c0565b606091505b5050905080610204576040517f08c379a00000000000000000000000000000000000000000000000000000000081526004016101fb9061063d565b60405180910390fd5b50505050565b600160009054906101000a900473ffffffffffffffffffffffffffffffffffffffff1673ffffffffffffffffffffffffffffffffffffffff16600360009054906101000a900473ffffffffffffffffffffffffffffffffffffffff1673ffffffffffffffffffffffffffffffffffffffff161461028657600080fd5b806000908051906020019061029c929190610332565b5050565b6060600080546102af9061079a565b80601f01602080910402602001604051908101604052809291908181526020018280546102db9061079a565b80156103285780601f106102fd57610100808354040283529160200191610328565b820191906000526020600020905b81548152906001019060200180831161030b57829003601f168201915b5050505050905090565b82805461033e9061079a565b90600052602060002090601f01602090048101928261036057600085556103a7565b82601f1061037957805160ff19168380011785556103a7565b828001600101855582156103a7579182015b828111156103a657825182559160200191906001019061038b565b5b5090506103b491906103b8565b5090565b5b808211156103d15760008160009055506001016103b9565b5090565b60006103e86103e384610682565b61065d565b90508281526020810184848401111561040057600080fd5b61040b848285610758565b509392505050565b6000610426610421846106b3565b61065d565b90508281526020810184848401111561043e57600080fd5b610449848285610758565b509392505050565b60008135905061046081610895565b92915050565b600082601f83011261047757600080fd5b81356104878482602086016103d5565b91505092915050565b600082601f8301126104a157600080fd5b81356104b1848260208601610413565b91505092915050565b6000813590506104c9816108ac565b92915050565b6000806000606084860312156104e457600080fd5b60006104f286828701610451565b9350506020610503868287016104ba565b925050604084013567ffffffffffffffff81111561052057600080fd5b61052c86828701610466565b9150509250925092565b60006020828403121561054857600080fd5b600082013567ffffffffffffffff81111561056257600080fd5b61056e84828501610490565b91505092915050565b6000610582826106e4565b61058c81856106fa565b935061059c818560208601610767565b80840191505092915050565b60006105b3826106ef565b6105bd8185610705565b93506105cd818560208601610767565b6105d68161085b565b840191505092915050565b60006105ee601983610705565b91506105f98261086c565b602082019050919050565b60006106108284610577565b915081905092915050565b6000602082019050818103600083015261063581846105a8565b905092915050565b60006020820190508181036000830152610656816105e1565b9050919050565b6000610667610678565b905061067382826107cc565b919050565b6000604051905090565b600067ffffffffffffffff82111561069d5761069c61082c565b5b6106a68261085b565b9050602081019050919050565b600067ffffffffffffffff8211156106ce576106cd61082c565b5b6106d78261085b565b9050602081019050919050565b600081519050919050565b600081519050919050565b600081905092915050565b600082825260208201905092915050565b600061072182610728565b9050919050565b600073ffffffffffffffffffffffffffffffffffffffff82169050919050565b600063ffffffff82169050919050565b82818337600083830152505050565b60005b8381101561078557808201518184015260208101905061076a565b83811115610794576000848401525b50505050565b600060028204905060018216806107b257607f821691505b602082108114156107c6576107c56107fd565b5b50919050565b6107d58261085b565b810181811067ffffffffffffffff821117156107f4576107f361082c565b5b80604052505050565b7f4e487b7100000000000000000000000000000000000000000000000000000000600052602260045260246000fd5b7f4e487b7100000000000000000000000000000000000000000000000000000000600052604160045260246000fd5b6000601f19601f8301169050919050565b7f6d6574616461746120657865637574696f6e206661696c656400000000000000600082015250565b61089e81610716565b81146108a957600080fd5b50565b6108b581610748565b81146108c057600080fd5b5056fea264697066735822122092bfa3d116f439730863675e2f27e1c2d4fc531f23cb71f9183c556b6c8cce4164736f6c63430008040033",
  "linkReferences": {},
  "deployedLinkReferences": {}
}