{
  "_format": "hh-sol-artifact-1",
  "contractName": "L1Contract",
  "sourceName": "contracts/L1Contract.sol",
  "abi": [
    {
      "inputs": [
        {
          "internalType": "address",
          "name": "_l2Contract",
          "type": "address"
        },
        {
          "internalType": "address",
          "name": "_l1Bridge",
          "type": "address"
        }
      ],
      "stateMutability": "nonpayable",
      "type": "constructor"
    },
    {
      "inputs": [],
      "name": "greet",
      "outputs": [
        {
          "internalType": "string",
          "name": "",
          "type": "string"
        }
      ],
      "stateMutability": "view",
      "type": "function"
    },
    {
      "inputs": [
        {
          "internalType": "address",
          "name": "originAddress",
          "type": "address"
        },
        {
          "internalType": "uint32",
          "name": "originNetwork",
          "type": "uint32"
        },
        {
          "internalType": "bytes",
          "name": "data",
          "type": "bytes"
        }
      ],
      "name": "onMessageReceived",
      "outputs": [],
      "stateMutability": "payable",
      "type": "function"
    },
    {
      "inputs": [
        {
          "internalType": "string",
          "name": "_greeting",
          "type": "string"
        }
      ],
      "name": "setGreeting",
      "outputs": [],
      "stateMutability": "nonpayable",
      "type": "function"
    }
  ],
  "bytecode": "0x608060405234801561001057600080fd5b50604051610a9f380380610a9f833981810160405281019061003291906100d0565b81600160006101000a81548173ffffffffffffffffffffffffffffffffffffffff021916908373ffffffffffffffffffffffffffffffffffffffff16021790555080600260006101000a81548173ffffffffffffffffffffffffffffffffffffffff021916908373ffffffffffffffffffffffffffffffffffffffff1602179055505050610155565b6000815190506100ca8161013e565b92915050565b600080604083850312156100e357600080fd5b60006100f1858286016100bb565b9250506020610102858286016100bb565b9150509250929050565b60006101178261011e565b9050919050565b600073ffffffffffffffffffffffffffffffffffffffff82169050919050565b6101478161010c565b811461015257600080fd5b50565b61093b806101646000396000f3fe6080604052600436106100345760003560e01c80631806b5f214610039578063a413686214610055578063cfae32171461007e575b600080fd5b610053600480360381019061004e9190610511565b6100a9565b005b34801561006157600080fd5b5061007c60048036038101906100779190610578565b61024c565b005b34801561008a57600080fd5b506100936102e2565b6040516100a0919061065d565b60405180910390f35b600160009054906101000a900473ffffffffffffffffffffffffffffffffffffffff1673ffffffffffffffffffffffffffffffffffffffff168373ffffffffffffffffffffffffffffffffffffffff161461010357600080fd5b60018263ffffffff161461011657600080fd5b82600360006101000a81548173ffffffffffffffffffffffffffffffffffffffff021916908373ffffffffffffffffffffffffffffffffffffffff16021790555060003073ffffffffffffffffffffffffffffffffffffffff168260405161017e9190610646565b6000604051808303816000865af19150503d80600081146101bb576040519150601f19603f3d011682016040523d82523d6000602084013e6101c0565b606091505b5050905080610204576040517f08c379a00000000000000000000000000000000000000000000000000000000081526004016101fb9061067f565b60405180910390fd5b6000600360006101000a81548173ffffffffffffffffffffffffffffffffffffffff021916908373ffffffffffffffffffffffffffffffffffffffff16021790555050505050565b600160009054906101000a900473ffffffffffffffffffffffffffffffffffffffff1673ffffffffffffffffffffffffffffffffffffffff16600360009054906101000a900473ffffffffffffffffffffffffffffffffffffffff1673ffffffffffffffffffffffffffffffffffffffff16146102c857600080fd5b80600090805190602001906102de929190610374565b5050565b6060600080546102f1906107dc565b80601f016020809104026020016040519081016040528092919081815260200182805461031d906107dc565b801561036a5780601f1061033f5761010080835404028352916020019161036a565b820191906000526020600020905b81548152906001019060200180831161034d57829003601f168201915b5050505050905090565b828054610380906107dc565b90600052602060002090601f0160209004810192826103a257600085556103e9565b82601f106103bb57805160ff19168380011785556103e9565b828001600101855582156103e9579182015b828111156103e85782518255916020019190600101906103cd565b5b5090506103f691906103fa565b5090565b5b808211156104135760008160009055506001016103fb565b5090565b600061042a610425846106c4565b61069f565b90508281526020810184848401111561044257600080fd5b61044d84828561079a565b509392505050565b6000610468610463846106f5565b61069f565b90508281526020810184848401111561048057600080fd5b61048b84828561079a565b509392505050565b6000813590506104a2816108d7565b92915050565b600082601f8301126104b957600080fd5b81356104c9848260208601610417565b91505092915050565b600082601f8301126104e357600080fd5b81356104f3848260208601610455565b91505092915050565b60008135905061050b816108ee565b92915050565b60008060006060848603121561052657600080fd5b600061053486828701610493565b9350506020610545868287016104fc565b925050604084013567ffffffffffffffff81111561056257600080fd5b61056e868287016104a8565b9150509250925092565b60006020828403121561058a57600080fd5b600082013567ffffffffffffffff8111156105a457600080fd5b6105b0848285016104d2565b91505092915050565b60006105c482610726565b6105ce818561073c565b93506105de8185602086016107a9565b80840191505092915050565b60006105f582610731565b6105ff8185610747565b935061060f8185602086016107a9565b6106188161089d565b840191505092915050565b6000610630601983610747565b915061063b826108ae565b602082019050919050565b600061065282846105b9565b915081905092915050565b6000602082019050818103600083015261067781846105ea565b905092915050565b6000602082019050818103600083015261069881610623565b9050919050565b60006106a96106ba565b90506106b5828261080e565b919050565b6000604051905090565b600067ffffffffffffffff8211156106df576106de61086e565b5b6106e88261089d565b9050602081019050919050565b600067ffffffffffffffff8211156107105761070f61086e565b5b6107198261089d565b9050602081019050919050565b600081519050919050565b600081519050919050565b600081905092915050565b600082825260208201905092915050565b60006107638261076a565b9050919050565b600073ffffffffffffffffffffffffffffffffffffffff82169050919050565b600063ffffffff82169050919050565b82818337600083830152505050565b60005b838110156107c75780820151818401526020810190506107ac565b838111156107d6576000848401525b50505050565b600060028204905060018216806107f457607f821691505b602082108114156108085761080761083f565b5b50919050565b6108178261089d565b810181811067ffffffffffffffff821117156108365761083561086e565b5b80604052505050565b7f4e487b7100000000000000000000000000000000000000000000000000000000600052602260045260246000fd5b7f4e487b7100000000000000000000000000000000000000000000000000000000600052604160045260246000fd5b6000601f19601f8301169050919050565b7f6d6574616461746120657865637574696f6e206661696c656400000000000000600082015250565b6108e081610758565b81146108eb57600080fd5b50565b6108f78161078a565b811461090257600080fd5b5056fea26469706673582212200b024e409e0dee769006b217bdbb16ae6ebe870cdffeeafc6ac93c77673a78d364736f6c63430008040033",
  "linkReferences": {},
  "deployedLinkReferences": {}
}